:1000000008308A0000280000FF00030E8301A100D1
:100010000A08A0008A010408A2007708A300780853
:10002000A4007908A5007A08A60003170D08031399
:10003000A70003170F080313A80003170C080313E6
:10004000A90003170E080313AA00831383120B1EC3
:100050002B288B184C28220884002308F70024083A
:10006000F8002508F9002608FA00270803178D0074
:100070000313280803178F000313290803178C00A4
:1000800003132A0803178E00031320088A00210E89
:100090008300FF0E7F0E09008A110A129F280A10A2
:1000A0008A100A11820728340C34013406340A10ED
:1000B0008A100A1182073134343437342A34323406
:1000C00035343834303433343634393465340C34E0
:1000D0000834643475340A108A100A118207003417
:1000E0008715AC112C0883168700831207142C1077
:1000F0002C08831687008312080050308400831375
:100100000008031991280530F800F701F70B86283D
:10011000F80B85282E30F700F70B8C288F28800BE2
:10012000832808008711AC112C08831687008312DE
:1001300007102C102C0883168700831208007020EB
:100140001430CF00FA30D0007D20CF0BA2289220AF
:100150008B108A110A122B28201000003E1000017B
:100160003E100001201000003E1000015537EC3712
:10017000E33500012010000143346137E7322028C5
:10018000E1397300D43CF0322028E1397300C337E1
:100190007239E53174004937E3377239E53174005B
:1001A000D232F43CF0322028E139731D0001493786
:1001B000E3377239E53174003210F434ED327300F4
:1001C000D232733A6139F434EE332E172E172E17CC
:1001D0002E000C00CE327710D030F339F737723260
:1001E0003A000C00D232F43CF0323A000C00D0302D
:1001F000F339A034731043346137E73264000C00E4
:10020000D232F43CF0322028E139F33B6F396400FC
:10021000E437E539EE137410ED30F43168000C006A
:10022000D232733A6139F434EE332E172E172E176B
:100230002E004C181D2906121E29061683160612BA
:100240008312CC1825298611262986158316861136
:1002500083124C192D2906112E2906158316061115
:100260008312CC19352986103629861483168610F8
:10027000000083128616831686120230F700F70BF1
:100280003F2900008312861283168612831208000B
:10029000CD018316061600308312061A0130CD04F4
:1002A000831686150030831286190130F70003107B
:1002B000F70D7708CD048316061500308312061952
:1002C0000130F700F70DF70DFC30F7057708CD0486
:1002D000831686140030831286180130F700F70D5C
:1002E000F70DF70DF830F7057708CD044D08F80045
:1002F00008004908073C03187F294030C9008613CD
:10030000831686130616861506158614831206179D
:1003100083160613000083128616831686120000C9
:10032000831248217808CC008612831686120000BA
:1003300083128616831686120000831248217808DD
:10034000CB008612831686120612861106118610BD
:1003500083124C0EF700F030F70577084B04F800D5
:100360007808CB00CB1FB62983168229C908031D44
:10037000BB298613BC2986178316861300008312B7
:100380000613831606130000831286128316861244
:1003900083124A0ECB000F30CB054B08CC0019213D
:1003A0004A080F39CB00CC0019210800460BDA2986
:1003B000C701EE294608023C031DE1294030C70071
:1003C000EE294608033C031DE8291430C700EE2936
:1003D0004608043C031DEE295430C7000130450295
:1003E000C70747088038C800C9014808CA007921F2
:1003F000080044080C3A0319042A063A0319122A81
:10040000023A0319182A1D2AC9010130CA007921AC
:10041000AB018B1BAB178B130230D0007D20AB1BC5
:100420008B17222A0130C5000230C600D621222AAD
:10043000C9011030CA007921222A0130C9004408BC
:10044000CA00792108000B08C1008B13831603171B
:100450008C170C140000000083120313C11B8B17B0
:1004600003170C087F390319772A0313C1000317F8
:100470000D080313C20003170F080313C30041083C
:10048000C400F921420803178D0003134308031722
:100490008F0003130B08C4008B13831603178C17EC
:1004A0000C140000000083120313C41B8B170317E6
:1004B0000C0D0E0D7F390319772A0313C1000317A2
:1004C0000D080313C20003170F080313C3004108EC
:1004D000C400F921420803178D00031343080317D2
:1004E0008F008D0A03198F0A0313232A031703139E
:1004F000080001304402FC3E0318A72A043EA82A43
:10050000C508031D852A0812862A081683160812B4
:100510008312A72AC508031D8F2A8812902A8816DD
:10052000831688128312A72AC508031D992A081367
:100530009A2A0817831608138312A72AC508031DD1
:10054000A32A8813A42A8817831688138312080005
:100550000A108A140A118207802A8A2A942A9E2A5B
:10056000831606128611061186108612861306134C
:1005700083128613831686138312061383160613BB
:1005800083128612831686128312AB018B1BAB1764
:100590008B130F30D0007D20AB1B8B170130C100B7
:1005A0004108033C031CE22A0330CC001921AB01B3
:1005B0008B1BAB178B130530D0007D20AB1B8B172B
:1005C000C10AD02A0230CC001921C1014108033CE4
:1005D000031CF32A41084F20C200C9014208CA0087
:1005E0007921C10AE62A0130C500C600D621B430FF
:1005F00003178D0000308F0003132322B63003173A
:100600008D0000308F00031323220130C50002301B
:10061000C600D621BA3003178D0000308F000313B7
:100620002322BC3003178D0000308F0003132322D8
:100630000130C1004108043C031C252B4108C400C3
:100640000130C5007922C10A1A2BAE01B001B101F7
:10065000AF01C101C2013330840083134108840714
:1006600042086B20800000380319392BC20AC10AE6
:100670002B2BB2010800FF30C3000130C400C501BC
:100680007922AC172C08831687008312871B522B04
:10069000AC172C08831687008312871F482B013064
:1006A000C300842B2C172C08831687008312071B8A
:1006B000632B2C172C08831687008312071F592BD6
:1006C0000230C300842BAC162C08831687008312DB
:1006D000871A742BAC162C08831687008312871E8A
:1006E0006A2B0330C300842B2C162C08831687003A
:1006F0008312071A842B2C162C088316870083126A
:10070000071E7B2B0430C3000130C400C5007922D2
:100710000230C400C5017922AC172C08831687006B
:100720008312871B9D2BAC172C088316870083121E
:10073000871F932B0530C300CF2B2C172C08831653
:1007400087008312071BAE2B2C172C0883168700FB
:100750008312071FA42B0630C300CF2BAC162C0826
:10076000831687008312871ABF2BAC162C088316BA
:1007700087008312871EB52B0730C300CF2B2C16A2
:100780002C08831687008312071ACF2B2C162C08EF
:10079000831687008312071EC62B0830C300023061
:1007A000C4000130C50079220330C400C50179229C
:1007B000AC172C08831687008312871BE92BAC1714
:1007C0002C08831687008312871FDF2B0930C30094
:1007D0001B2C2C172C08831687008312071BFA2B5F
:1007E0002C172C08831687008312071FF02B0A3062
:1007F000C3001B2CAC162C08831687008312871AA3
:100800000B2CAC162C08831687008312871E012C34
:100810000B30C3001B2C2C162C0883168700831268
:10082000071A1B2C2C162C08831687008312071E10
:10083000122C0C30C3000330C4000130C5007922F3
:100840000430C400C5017922AC172C088316870038
:100850008312871B352CAC172C0883168700831254
:10086000871F2B2C0D30C300672C2C172C088316E8
:1008700087008312071B462C2C172C088316870031
:100880008312071F3C2C0E30C300672CAC162C08BB
:10089000831687008312871A572CAC162C088316F0
:1008A00087008312871E4D2C0F30C300672C2C1637
:1008B0002C08831687008312071A672C2C162C0825
:1008C000831687008312071E5E2C1030C30004308D
:1008D000C4000130C50079224308FF3C031D732C7E
:1008E000FF30F800782C013043025720F800F80060
:1008F00008000130C100C301C401333084008313F8
:100900004308840744086B208000003803198B2CAF
:10091000C40AC30A7D2C0430C200C1080319DE2CAE
:100920003B237808AD00AB018B1BAB178B13323028
:10093000D0007D20AB1B8B172D08653C0319A32C21
:10094000C208031DB92CC1010C30C400F9210130CB
:10095000C500C600D6214208033C031CB92C333025
:100960004207840083130008C300C400F921C20AAF
:10097000AB2C2D08803A7F3C0318DD2C2D080C3C55
:100980000319DD2C2D08753C0319DD2C2D08643C62
:100990000319DD2C2D08653C0319DD2C2D082A3C9C
:1009A0000319DD2C2D08C400F9214208043C333E14
:1009B000840083132D088000C2038D2C08000715C6
:1009C0002C112C088316870083128714AC102C0876
:1009D000831687008312080007112C112C08831638
:1009E000870083128710AC102C08831687008312AF
:1009F0000800BC01B001B101B201E93003178D005C
:100A000000308F00031323220130C500C600D62119
:100A1000EA3003178D0000308F00031323220130CA
:100A2000C5000230C600D6217924BD013C08033C34
:100A3000031C372D33303C07840083130008C100AA
:100A4000C400F9213D303C07F800FA010318FA0A06
:100A500033303C07840083130008C3007808840007
:100A600083137A18831743088000BC0A162DF130CF
:100A700003178D0000308F00031323220330C500BD
:100A80000130C600D621F23003178D0000308F00F0
:100A9000031323220130C5000230C600D621792479
:100AA000BC013C08033C031C702D33303C07840020
:100AB00083130008C100C400F9213D303C078400C5
:100AC00083130008C10033303C07840083130008FF
:100AD000410203196E2D0130B100702DBC0A512D59
:100AE000B108031DF22DBC013C08033C031C952DED
:100AF00033303C07840083130008C100C400F9218F
:100B000037303C07F800FA010318FA0A3D303C0779
:100B1000840083130008C3007808840083137A18C4
:100B2000831743088000BC0A742DF63003178D002C
:100B300000308F00031323220130C500C600D621E8
:100B4000F73003178D0000308F0003132322083085
:100B5000C100C3013730C2004308FA0042088400D4
:100B600083137A18831780080319DD2D4308FA00D0
:100B7000420884008313431883170008C4000B083D
:100B8000F7008B13410803178D0003134408031764
:100B90008C0083168C130C1555308D00AA308D00F7
:100BA0008C148C18D12D0C117708831203138B042D
:100BB000C10AC20A0319C30AAC2D0C30C100AB0133
:100BC0008B1BAB178B13FA30D0007D20AB1B8B1720
:100BD000C10BDF2D07102C102C0883168700831201
:100BE000B022452E07102C102C0883168700FF30EA
:100BF000831203178D0000308F000313232201306E
:100C0000C500C600D621003003178D0001308F00CB
:100C1000031323220130C5000230C600D62108305C
:100C200003178D0001308F0003132322DF240C30C3
:100C3000C100AB018B1BAB178B13FA30D0007D20AA
:100C4000AB1B8B17C10B192EEC240F3003178D0033
:100C500001308F00031323220130C500C600D621C6
:100C6000103003178D0001308F000313232214303E
:100C7000C100AB018B1BAB178B13FA30D0007D206A
:100C8000AB1B8B17C10B392EB0220800C0013F08E7
:100C900040020318602E40083D07840083133E186D
:100CA000831740083C07C300430803178D008316D1
:100CB0008C130C1483120C0880000313C00A472EF7
:100CC0003F083D07840083133E18831780018A156F
:100CD0000A126C280C30C400F9210330C500013021
:100CE000C600D621C23003178D0000308F000313D9
:100CF00023220130C5000230C600D6210800B10110
:100D0000BE013E08033C031CA52E3E083C078400A0
:100D100083133D1883170008BF00C400F9213E0863
:100D20003C07840083133D1883170008BF00373049
:100D30003E078400831300083F020319A32E0130ED
:100D4000B100B00AA52EBE0A812E08000C30C400E6
:100D5000F9210330C5000130C600D621C730031782
:100D60008D0000308F000313232208000C30C400D4
:100D7000F9210330C5000130C600D621CB3003175E
:100D80008D0000308F0003132322DF240C30BC00C1
:100D9000AB018B1BAB178B13FA30D0007D20AB1B44
:100DA0008B17BC0BC82EEC240C30C400F921013089
:100DB000C500C600D621D03003178D0000308F004B
:100DC000031323220130C5000230C600D6213008AB
:100DD000023C031D302FDF240C30C400F921013008
:100DE000C500C600D621D73003178D0000308F0014
:100DF000031323220130C5000230C600D621DC30A7
:100E000003178D0000308F00031323220C30BC0029
:100E1000AB018B1BAB178B13FA30D0007D20AB1BC3
:100E20008B17BC0B082F0C30C400F9210130C50012
:100E3000C600D621E03003178D0000308F00031369
:100E400023221430BC00AB018B1BAB178B13FA3081
:100E5000D0007D20AB1B8B17BC0B232FEC24B022C2
:020E6000080088
:1010000003081F398300FF30AC00AD0083161F14A6
:101010009F141F159F1107309C0083138312B30187
:10102000B701B801B901BA018A11B0228A1501309D
:10103000831686000F3087008312AC000B16C03079
:101040008B0403178D0183168C130C1483120C0868
:101050000313BB00AB018B1BAB178B130230D0000B
:101060008A117D208A15AB1B8B173B08FF3C031DA3
:10107000632807142C102C08831687008A1183120A
:10108000F9248A150B08F7008B1303178D01013023
:101090008C0083168C130C1555308D00AA308D00F2
:1010A0008C148C1851280C117708831203138B04AD
:1010B000AB018B1BAB178B130230D0008A117D2044
:1010C0008A15AB1B8B170830BC00BE013730BD0042
:1010D0000430BF008A11462E8A158A113B238A15D7
:1010E0007808AD00AB018B1BAB178B133230D000EF
:1010F0008A117D208A15AB1B8B170130C500C600F5
:101100008A11D6218A152D08FF3C03193B292D0889
:10111000643A03199228683A0319D828693A0319DE
:10112000DE283629AF08031DB7280130C500C600E8
:101130008A11D6218A15AC3003178D0000308F003C
:101140008A11031323228A150130C5000230C6001C
:101150008A11D6218A15AE3003178D0000308F001A
:101160008A11031323228A150130AF00D7280130DA
:10117000C500C6008A11D6218A15B03003178D002C
:1011800000308F008A11031323228A150130C50015
:101190000230C6008A11D6218A15B23003178D009D
:1011A00000308F008A11031323228A15AF013B29D7
:1011B0002D08C4008A11F9218A153B29AF08031DA7
:1011C00013298A116A268A158A1179248A15BD0184
:1011D0003330BC008A117F268A15B108031D0C2903
:1011E0008A11A6268A158A1170208A150C30BC0037
:1011F000AB018B1BAB178B13FA30D0008A117D200B
:101200008A15AB1B8B17BC0BF8288A1192208A1504
:101210008A11B0228A150F298A11B6268A15310B38
:101220001229E42835298A116A268A158A11792417
:101230008A15BD013330BC008A117F268A15B1089A
:10124000031D2F298A11A6268A1507142C102C0895
:10125000831687008A118312F9248A1532298A118C
:10126000B6268A15310B352916293B292D08C400CD
:0A1270008A11F9218A156D28630028
:02400E00723FFF
:00000001FF
;PIC16F877A
;CRC=4C90  CREATED="27-Jun-22 22:52"
